{
  "_format": "hh-sol-artifact-1",
  "contractName": "EscrowTradeFactory",
  "sourceName": "contracts/EscrowTradeFactory.sol",
  "abi": [
    {
      "inputs": [],
      "stateMutability": "nonpayable",
      "type": "constructor"
    },
    {
      "anonymous": false,
      "inputs": [
        {
          "indexed": true,
          "internalType": "address",
          "name": "buyer",
          "type": "address"
        },
        {
          "indexed": true,
          "internalType": "address",
          "name": "seller",
          "type": "address"
        },
        {
          "indexed": false,
          "internalType": "uint256",
          "name": "amount",
          "type": "uint256"
        },
        {
          "indexed": true,
          "internalType": "address",
          "name": "escrowContractAddress",
          "type": "address"
        },
        {
          "indexed": false,
          "internalType": "uint256",
          "name": "tradeId",
          "type": "uint256"
        }
      ],
      "name": "TradeCreated",
      "type": "event"
    },
    {
      "inputs": [
        {
          "internalType": "address",
          "name": "_seller",
          "type": "address"
        },
        {
          "internalType": "address",
          "name": "_arbitrator",
          "type": "address"
        }
      ],
      "name": "createTrade",
      "outputs": [
        {
          "internalType": "address",
          "name": "newEscrowAddress",
          "type": "address"
        }
      ],
      "stateMutability": "payable",
      "type": "function"
    },
    {
      "inputs": [],
      "name": "nextTradeId",
      "outputs": [
        {
          "internalType": "uint256",
          "name": "",
          "type": "uint256"
        }
      ],
      "stateMutability": "view",
      "type": "function"
    }
  ],
  "bytecode": "0x608060405234801561001057600080fd5b506001600081905550611546806100286000396000f3fe6080604052600436106100295760003560e01c8063813ad0831461002e578063dec361ac14610059575b600080fd5b34801561003a57600080fd5b50610043610089565b60405161005091906101da565b60405180910390f35b610073600480360381019061006e9190610258565b61008f565b60405161008091906102a7565b60405180910390f35b60005481565b60008034116100d3576040517f08c379a00000000000000000000000000000000000000000000000000000000081526004016100ca9061031f565b60405180910390fd5b600034338534866040516100e6906101b4565b6100f3949392919061033f565b6040518091039082f0905080158015610110573d6000803e3d6000fd5b5090508073ffffffffffffffffffffffffffffffffffffffff168473ffffffffffffffffffffffffffffffffffffffff163373ffffffffffffffffffffffffffffffffffffffff167fe6590d553dfe4e8168c8542cdcea58d217ecf014a1b127e13e896388286de64f3460005460405161018b929190610384565b60405180910390a46000808154809291906101a5906103dc565b91905055508091505092915050565b6110ec8061042583390190565b6000819050919050565b6101d4816101c1565b82525050565b60006020820190506101ef60008301846101cb565b92915050565b600080fd5b600073ffffffffffffffffffffffffffffffffffffffff82169050919050565b6000610225826101fa565b9050919050565b6102358161021a565b811461024057600080fd5b50565b6000813590506102528161022c565b92915050565b6000806040838503121561026f5761026e6101f5565b5b600061027d85828601610243565b925050602061028e85828601610243565b9150509250929050565b6102a18161021a565b82525050565b60006020820190506102bc6000830184610298565b92915050565b600082825260208201905092915050565b7f416d6f756e74206d7573742062652067726561746572207468616e207a65726f600082015250565b60006103096020836102c2565b9150610314826102d3565b602082019050919050565b60006020820190508181036000830152610338816102fc565b9050919050565b60006080820190506103546000830187610298565b6103616020830186610298565b61036e60408301856101cb565b61037b6060830184610298565b95945050505050565b600060408201905061039960008301856101cb565b6103a660208301846101cb565b9392505050565b7f4e487b7100000000000000000000000000000000000000000000000000000000600052601160045260246000fd5b60006103e7826101c1565b91507fffffffffffffffffffffffffffffffffffffffffffffffffffffffffffffffff8203610419576104186103ad565b5b60018201905091905056fe6080604052604051620010ec380380620010ec8339818101604052810190620000299190620001cf565b836000806101000a81548173ffffffffffffffffffffffffffffffffffffffff021916908373ffffffffffffffffffffffffffffffffffffffff16021790555082600160006101000a81548173ffffffffffffffffffffffffffffffffffffffff021916908373ffffffffffffffffffffffffffffffffffffffff160217905550816002819055506000600360006101000a81548160ff02191690836002811115620000da57620000d962000241565b5b021790555080600360016101000a81548173ffffffffffffffffffffffffffffffffffffffff021916908373ffffffffffffffffffffffffffffffffffffffff1602179055505050505062000270565b600080fd5b600073ffffffffffffffffffffffffffffffffffffffff82169050919050565b60006200015c826200012f565b9050919050565b6200016e816200014f565b81146200017a57600080fd5b50565b6000815190506200018e8162000163565b92915050565b6000819050919050565b620001a98162000194565b8114620001b557600080fd5b50565b600081519050620001c9816200019e565b92915050565b60008060008060808587031215620001ec57620001eb6200012a565b5b6000620001fc878288016200017d565b94505060206200020f878288016200017d565b93505060406200022287828801620001b8565b925050606062000235878288016200017d565b91505092959194509250565b7f4e487b7100000000000000000000000000000000000000000000000000000000600052602160045260246000fd5b610e6c80620002806000396000f3fe60806040526004361061008a5760003560e01c80636daa2d44116100595780636daa2d441461012e5780637150d8ae1461014557806389e1e82a14610170578063aa8c217c14610199578063be444a68146101c457610091565b806308551a53146100965780630c3f6acf146100c15780635e10177b146100ec5780636cc6cde11461010357610091565b3661009157005b600080fd5b3480156100a257600080fd5b506100ab6101f2565b6040516100b89190610a41565b60405180910390f35b3480156100cd57600080fd5b506100d6610218565b6040516100e39190610ad3565b60405180910390f35b3480156100f857600080fd5b5061010161022b565b005b34801561010f57600080fd5b50610118610470565b6040516101259190610a41565b60405180910390f35b34801561013a57600080fd5b50610143610496565b005b34801561015157600080fd5b5061015a610670565b6040516101679190610a41565b60405180910390f35b34801561017c57600080fd5b5061019760048036038101906101929190610b2b565b610694565b005b3480156101a557600080fd5b506101ae61098f565b6040516101bb9190610b71565b60405180910390f35b3480156101d057600080fd5b506101d9610995565b6040516101e99493929190610b8c565b60405180910390f35b600160009054906101000a900473ffffffffffffffffffffffffffffffffffffffff1681565b600360009054906101000a900460ff1681565b60008054906101000a900473ffffffffffffffffffffffffffffffffffffffff1673ffffffffffffffffffffffffffffffffffffffff163373ffffffffffffffffffffffffffffffffffffffff16146102b9576040517f08c379a00000000000000000000000000000000000000000000000000000000081526004016102b090610c2e565b60405180910390fd5b600060028111156102cd576102cc610a5c565b5b600360009054906101000a900460ff1660028111156102ef576102ee610a5c565b5b1461032f576040517f08c379a000000000000000000000000000000000000000000000000000000000815260040161032690610c9a565b60405180910390fd5b6001600360006101000a81548160ff0219169083600281111561035557610354610a5c565b5b0217905550600160009054906101000a900473ffffffffffffffffffffffffffffffffffffffff1673ffffffffffffffffffffffffffffffffffffffff166108fc6002549081150290604051600060405180830381858888f193505050501580156103c4573d6000803e3d6000fd5b50600160009054906101000a900473ffffffffffffffffffffffffffffffffffffffff1673ffffffffffffffffffffffffffffffffffffffff1660008054906101000a900473ffffffffffffffffffffffffffffffffffffffff1673ffffffffffffffffffffffffffffffffffffffff167fdf462b659b1ef8bf3bb666339203dff5a51e2430e9caaf35984dcb2a92c77d666002546040516104669190610b71565b60405180910390a3565b600360019054906101000a900473ffffffffffffffffffffffffffffffffffffffff1681565b60008054906101000a900473ffffffffffffffffffffffffffffffffffffffff1673ffffffffffffffffffffffffffffffffffffffff163373ffffffffffffffffffffffffffffffffffffffff1614610524576040517f08c379a000000000000000000000000000000000000000000000000000000000815260040161051b90610c2e565b60405180910390fd5b6000600281111561053857610537610a5c565b5b600360009054906101000a900460ff16600281111561055a57610559610a5c565b5b1461059a576040517f08c379a000000000000000000000000000000000000000000000000000000000815260040161059190610d06565b60405180910390fd5b6002600360006101000a81548160ff021916908360028111156105c0576105bf610a5c565b5b0217905550600160009054906101000a900473ffffffffffffffffffffffffffffffffffffffff1673ffffffffffffffffffffffffffffffffffffffff1660008054906101000a900473ffffffffffffffffffffffffffffffffffffffff1673ffffffffffffffffffffffffffffffffffffffff167fe64f7ad65d89337c4a8e0a184107b60e148188a40b245de26ff7881762f111e86002546040516106669190610b71565b60405180910390a3565b60008054906101000a900473ffffffffffffffffffffffffffffffffffffffff1681565b600360019054906101000a900473ffffffffffffffffffffffffffffffffffffffff1673ffffffffffffffffffffffffffffffffffffffff163373ffffffffffffffffffffffffffffffffffffffff1614610724576040517f08c379a000000000000000000000000000000000000000000000000000000000815260040161071b90610d72565b60405180910390fd5b60028081111561073757610736610a5c565b5b600360009054906101000a900460ff16600281111561075957610758610a5c565b5b14610799576040517f08c379a000000000000000000000000000000000000000000000000000000000815260040161079090610dde565b60405180910390fd5b80156108805760008054906101000a900473ffffffffffffffffffffffffffffffffffffffff1673ffffffffffffffffffffffffffffffffffffffff166108fc6002549081150290604051600060405180830381858888f19350505050158015610807573d6000803e3d6000fd5b5060008054906101000a900473ffffffffffffffffffffffffffffffffffffffff1673ffffffffffffffffffffffffffffffffffffffff167f798e68462b6674448ea3db700362faf55bfcb6099c8067a1c74779939526f8a96002546001604051610873929190610e0d565b60405180910390a2610961565b600160009054906101000a900473ffffffffffffffffffffffffffffffffffffffff1673ffffffffffffffffffffffffffffffffffffffff166108fc6002549081150290604051600060405180830381858888f193505050501580156108ea573d6000803e3d6000fd5b50600160009054906101000a900473ffffffffffffffffffffffffffffffffffffffff1673ffffffffffffffffffffffffffffffffffffffff167f798e68462b6674448ea3db700362faf55bfcb6099c8067a1c74779939526f8a96002546000604051610958929190610e0d565b60405180910390a25b6001600360006101000a81548160ff0219169083600281111561098757610986610a5c565b5b021790555050565b60025481565b60008060008060008054906101000a900473ffffffffffffffffffffffffffffffffffffffff16600160009054906101000a900473ffffffffffffffffffffffffffffffffffffffff16600254600360009054906101000a900460ff16935093509350935090919293565b600073ffffffffffffffffffffffffffffffffffffffff82169050919050565b6000610a2b82610a00565b9050919050565b610a3b81610a20565b82525050565b6000602082019050610a566000830184610a32565b92915050565b7f4e487b7100000000000000000000000000000000000000000000000000000000600052602160045260246000fd5b60038110610a9c57610a9b610a5c565b5b50565b6000819050610aad82610a8b565b919050565b6000610abd82610a9f565b9050919050565b610acd81610ab2565b82525050565b6000602082019050610ae86000830184610ac4565b92915050565b600080fd5b60008115159050919050565b610b0881610af3565b8114610b1357600080fd5b50565b600081359050610b2581610aff565b92915050565b600060208284031215610b4157610b40610aee565b5b6000610b4f84828501610b16565b91505092915050565b6000819050919050565b610b6b81610b58565b82525050565b6000602082019050610b866000830184610b62565b92915050565b6000608082019050610ba16000830187610a32565b610bae6020830186610a32565b610bbb6040830185610b62565b610bc86060830184610ac4565b95945050505050565b600082825260208201905092915050565b7f4f6e6c792062757965722063616e2063616c6c20746869730000000000000000600082015250565b6000610c18601883610bd1565b9150610c2382610be2565b602082019050919050565b60006020820190508181036000830152610c4781610c0b565b9050919050565b7f4e6f74206177616974696e672064656c69766572790000000000000000000000600082015250565b6000610c84601583610bd1565b9150610c8f82610c4e565b602082019050919050565b60006020820190508181036000830152610cb381610c77565b9050919050565b7f4e6f742064697370757461626c65000000000000000000000000000000000000600082015250565b6000610cf0600e83610bd1565b9150610cfb82610cba565b602082019050919050565b60006020820190508181036000830152610d1f81610ce3565b9050919050565b7f4f6e6c792061726269747261746f720000000000000000000000000000000000600082015250565b6000610d5c600f83610bd1565b9150610d6782610d26565b602082019050919050565b60006020820190508181036000830152610d8b81610d4f565b9050919050565b7f4e6f206163746976652064697370757465000000000000000000000000000000600082015250565b6000610dc8601183610bd1565b9150610dd382610d92565b602082019050919050565b60006020820190508181036000830152610df781610dbb565b9050919050565b610e0781610af3565b82525050565b6000604082019050610e226000830185610b62565b610e2f6020830184610dfe565b939250505056fea2646970667358221220a0e10397a44ff48321b1d3293fbd30a62d147f9452622c2b92ddcab36848ca3a64736f6c63430008130033a26469706673582212206fda3022345851b2c9a12860f49fc1710427fab448ea8448c64c5461074f272c64736f6c63430008130033",
  "linkReferences": {},
  "deployedLinkReferences": {}
}